:100000000C94D5000C94FD000C94FD000C94FD00A4
:100010000C94FD000C94FD000C94FD000C94FD006C
:100020000C94FD000C94FD000C94AD080C941C097C
:100030000C94FD000C94FD000C94FD000C94FD004C
:100040000C94FD000C94FD000C94FD000C94FD003C
:100050000C94FD000C94FD000C94FD000C946308BE
:100060000C94FD000C94FD000C94FD000C94FD001C
:100070000C94FD000C94FD000C94FD000C94FD000C
:100080000C94FD000C94FD000C94FD000C94FD00FC
:100090000C94FD000C94FD000C94FD000C94FD00EC
:1000A0000C94FD000C94FD000C94FD00080B000264
:1000B0000202000009040000010202000005240001
:1000C0001001052401010104240206052406000193
:1000D0000705810310004009040100020A00000026
:1000E00007050202400000070583024000000403E8
:1000F000090412010002EF02014041233680000191
:100100000102030141726475696E6F204C4C43001B
:1001100041726475696E6F204C656F6E6172646FB9
:100120000000000000240027002A002D00300000FD
:100130000000002300260029002C002F00000000F2
:1001400000250028002B002E0031000404040404C4
:10015000030405020202020403020202020606066A
:100160000606060404020202040404080201104008
:100170008040102040804080080204018040201010
:100180000201108010204040200000000200090FF2
:100190000000030401000C0000000000000000004B
:1001A00000000000000000004E0B11241FBECFEF26
:1001B000DAE0DEBFCDBF11E0A0E0B1E0EEE2F0E2B8
:1001C00002C005900D92A835B107D9F722E0A8E545
:1001D000B1E001C01D92A838B207E1F710E0C5ED0B
:1001E000D0E004C02197FE010E94CD0EC43DD1078E
:1001F000C9F70E94500D0C9415100C9400004F92FA
:100200005F926F927F928F929F92AF92BF92CF92A6
:10021000DF92EF92FF920F931F93CF93DF93E5014D
:100220000C151D052E053F050CF051C028013901A4
:1002300046015701882309F44FC0CA01DB01841528
:100240009505A605B70514F4D301C201B501A401B3
:1002500088159905AA05BB0514F4AC01BD01C016AB
:10026000D106E206F30664F4D501C401841B950BA4
:10027000A60BB70BAC01BD01440D551D661D771DC6
:100280009A01AB012419350946095709AFEFBFEFB1
:100290000E947D0EA50194012419350946095709CC
:1002A0000E945E0E2883398382E090E0DF91CF9137
:1002B0001F910F91FF90EF90DF90CF90BF90AF9084
:1002C0009F908F907F906F905F904F900895260140
:1002D000370148015901AECF90E080E0E7CFFC0143
:1002E0008091A101882311F13FB7F89482E08093B7
:1002F000E9002091F200822F90E01816190614F4FC
:1003000081E090E0882339F0289844E64093A001EA
:100310004091F1004083222339F02091F200211115
:1003200003C02BE62093E8003FBF08958FEF9FEFB7
:100330000895CF93DF931F92CDB7DEB76983DC01B9
:10034000ED91FC910280F381E02D41E050E0BE018F
:100350006F5F7F4F09950F90DF91CF91089583E0F4
:100360008093E9008091F200882319F08AE380935A
:10037000E8000895CF93DF931F92CDB7DEB7FC015D
:100380008485958597FD08C02FEF3FEF358724873B
:100390000F90DF91CF910895CE0101960E946F01D9
:1003A000019719F4898190E0F3CF8FEF9FEFF0CFA1
:1003B0000F931F93CF93DF931F92CDB7DEB78C01BE
:1003C000FC018485958597FF0BC0CE0101960E94A4
:1003D0006F01019771F4898190E0F8019587848716
:1003E000F801848595850F90DF91CF911F910F9132
:1003F00008958FEF9FEFF1CFFC018485958597FDE0
:100400000BC09FB7F89482E08093E9008091F200DE
:100410009FBF90E0019608959FB7F89482E0809383
:10042000E9008091F2009FBF90E0089581508F30E5
:1004300008F047C0E82FF0E0E05EFD4F0C94CD0ED1
:100440003D0241022F02350239026102610261025E
:1004500044024A024E025202580261025C0280913A
:1004600080008F77809380000895809180008F7D39
:10047000F9CF80918000877FF5CF84B58F7784BDD9
:10048000089584B58F7DFBCF809190008F77809306
:1004900090000895809190008F7DF9CF8091900019
:1004A000877FF5CF8091C0008F778093C00008953B
:1004B0008091C0008F7DF9CF8091C200877F8093AB
:1004C000C20008951F93CF93DF93EAE8F1E094917F
:1004D000EBE6F1E0D491ECE4F1E0C491CC23B9F087
:1004E000182F992319F0892F0E941602EC2FF0E0A3
:1004F000EE0FFF1FE35CFE4FA591B4918FB7F89408
:10050000EC91111108C0D095DE23DC938FBFDF91F1
:10051000CF911F910895DE2BF8CFCF93DF93282F33
:1005200030E0F901E757FE4F8491F901E659FE4F9B
:10053000D491F901E55BFE4FC491CC23A1F0811168
:100540000E941602EC2FF0E0EE0FFF1FE15DFE4F60
:10055000A591B491EC91ED2381E090E009F480E065
:10056000DF91CF91089580E090E0FACFCF93DF93B1
:1005700090E0FC01E659FE4F2491855B9E4FFC0103
:1005800084918823D1F090E0880F991FFC01EF5DE2
:10059000FE4FA591B491FC01E35CFE4FC591D4914F
:1005A000623071F49FB7F8943C91822F8095832339
:1005B0008C93E8812E2B28839FBFDF91CF910895E4
:1005C0008FB7F894EC912E2B2C938FBFF6CF3FB7BB
:1005D000F89480919C0190919D01A0919E01B09111
:1005E0009F0126B5A89B05C02F3F19F00196A11DBC
:1005F000B11D3FBFBA2FA92F982F8827BC01CD016D
:10060000620F711D811D911D42E0660F771F881FCB
:10061000991F4A95D1F70895CF92DF92EF92FF92FA
:100620000E94E7026B017C010E94E7026C197D09C0
:100630008E099F09683E734081059105A8F3FF90DC
:10064000EF90DF90CF90089540917F01509180010D
:1006500020917D0130917E0142175307B4F49091AF
:10066000E8009570E1F39091E80092FD19C0809345
:10067000F10080917F019091800101968F739927FD
:10068000892B19F48EEF8093E80080917F0190917F
:10069000800101969093800180937F0181E008950D
:1006A00080E00895EF92FF920F931F93CF93DF9313
:1006B000F82E192FE62E042F81E0860F880F0E9456
:1006C000240383E00E942403CF2DD12FEC0EFD2EB6
:1006D000F11CCE15DF05B9F007FF13C0FE018491B0
:1006E0000E942403182F80E00E9424038123219676
:1006F0008111EFCFDF91CF911F910F91FF90EF907C
:1007000008958881EDCF81E0F5CFDF92EF92FF92DF
:100710000F931F93CF93DF93D82E8A01EB017B01B8
:10072000E40EF51ECE15DF0559F0D7FE12C0FE010E
:1007300084910E94240321968111F4CF0FEF1FEFC3
:10074000C801DF91CF911F910F91FF90EF90DF9043
:1007500008958881EECF2FB7F89487708093E900D1
:100760009091E800892F807295FF04C09091F2006B
:1007700080E4891B2FBF089583E00E94AB0390E0C3
:1007800008957F928F929F92AF92BF92CF92DF9205
:10079000EF92FF920F931F93CF93DF93C82E8B019D
:1007A0007A018091A101811110C08FEF9FEFDF913D
:1007B000CF911F910F91FF90EF90DF90CF90BF905E
:1007C000AF909F908F907F9008958091830180FFDC
:1007D00005C08091E00082608093E000CE2DDF2D87
:1007E000D12C8AEFB82E8C2D8770982E8C2D80728C
:1007F000882E8C2D8074782E9AE3A92E209719F4D8
:10080000DD2009F44EC08C2D0E94AB03811106C07F
:10081000BA94BB2051F20E940C03F0CF8C171D0636
:1008200011F00CF08C2F9FB7F8949092E900209172
:10083000E80025FD02C09FBFE1CF282F30E0C21B9A
:10084000D30B882029F08150A0F01092F100FBCF4B
:10085000F801C7FC0AC0815050F041914093F1006B
:10086000FACF44914093F10031968150D0F7020FB6
:10087000131FDD2021F0A092E800D12CDCCF809165
:10088000E80085FD07C0A092E800DD24D3942097FE
:1008900091F2F3CF209779F6772069F2A092E800E1
:1008A000CACF5D9884E680938201C70180CFCF9341
:1008B000DF93EC0180911201882331F083E00E94E4
:1008C000C1031816190634F081E090E09B838A83F7
:1008D00080E090E0DF91CF910895615030F0209159
:1008E000F100FC0120830196F8CF289884E68093DC
:1008F000A00108958091750181110DC082E080935F
:10090000710184E08093720110927401109273015E
:1009100081E08093750181E791E008950F931F9323
:10092000CF93DF931F92CDB7DEB782E0898342E495
:1009300050E06CEA70E080E80E9485030E947A042F
:10094000DC0112960D911C910115110589F0D80159
:10095000ED91FC910280F381E02DBE016F5F7F4F2E
:10096000C801099597FD04C0F80100851185ECCFF9
:1009700089810F90DF91CF911F910F910895DC0134
:10098000FB0112962C9112978481958128171906E4
:1009900041F491818081813A31F49D7F81E09130F1
:1009A00009F080E008958132E1F79B3029F48281DB
:1009B0001F968C9381E008959A3099F78281509622
:1009C0008C93F8CFDC01FB0188E4808389E4818388
:1009D00084E482831D969C911D979F709F5B9383F7
:1009E0001D968D919C9124E0969587952A95E1F727
:1009F0008F708F5B848385E00895EF92FF920F9351
:100A00001F93CF93DF93FB012081213889F5238148
:100A1000223271F5DC0112964C9124813581421706
:100A2000130631F58C01FC01C385D485F12CE12C32
:100A3000209791F04C815D816A817B818E8181114B
:100A400080E80E9485038F3F980759F0E80EF91E51
:100A50000990D881C02DECCF81E0D8011F968C93EE
:100A6000C701DF91CF911F910F91FF90EF900895F3
:100A700090E080E0F6CFCF93DF93CDB7DEB76997F4
:100A80000FB6F894DEBF0FBECDBFFC01DB018C9129
:100A90008F5F8C939E012D5F3F4F8DE0D9011D929A
:100AA0008A95E9F729E0298384E08A8391E09D8390
:100AB00083E08E832A8721E22B879C879D879F87EF
:100AC00022E2288B27E02B8B25E02C8B8E8B20E4D9
:100AD00030E0388F2F8B998F82818B839585868527
:100AE000998B8A8B838180688D8B49E150E0BE01B0
:100AF0006F5F7F4F80E00E94850369960FB6F89480
:100B0000DEBF0FBECDBFDF91CF910895CF93DF93AE
:100B100080916901811167C081E080935C018093BD
:100B20005D0122E631E030935F0120935E01109277
:100B30006101109260012DE131E030935901209361
:100B40005801109264011092630110926601109294
:100B50006501809367018093680181EC8093620155
:100B60000E947A04FC01818190915C01482F490F19
:100B70005527551F483051059CF5A281B381109728
:100B800009F528E531E033832283208120935A013F
:100B900080935B0180915D01820F808320915E01D3
:100BA000A22FB0915F018A2F821B8917C8F481811F
:100BB0003D91C82FD0E0C050DF4F38838F5F8183D5
:100BC000F2CFD90118962D913C9119972115310535
:100BD000C1F728E531E019963C932E931897D5CFAD
:100BE00081E08093690188E591E0DF91CF910895DC
:100BF0004F925F926F927F928F929F92AF92BF922D
:100C0000CF92DF92EF92FF920F931F93CF93DF93D8
:100C1000CDB7DEB74DB65EB6809183022DB73EB735
:100C2000281B31090FB6F8943EBF0FBE2DBF8DB7FC
:100C30009EB701963C0180902602912C8091220261
:100C400090912302D301FC019F01281B390B281529
:100C500039051CF421912D93F7CF80912702882329
:100C600059F180911E0290911F0228E097FD09C062
:100C700068E671E00E94B90E6DE270E00E94B90E64
:100C8000262F809120029091210268E097FD08C0F4
:100C900068E671E00E94B90E6DE270E00E94B90E44
:100CA000F301E80DF91D90E1699FB0011124262B95
:100CB0002083F40131964F015301A80CB91CC09058
:100CC0002E02D0902F02E0903002F090310200917D
:100CD0002A0210912B0220912C0230912D0240917A
:100CE000F2015091F3016091F4017091F50180914E
:100CF000280281700E94FF00880E991E5301A80CE3
:100D0000B91CC0903602D0903702E0903802F090C3
:100D10003902009132021091330220913402309155
:100D200035024091F6015091F7016091F801709100
:100D3000F90180912802869581700E94FF00880E3B
:100D4000991E5301A80CB91CC0903E02D0903F02DE
:100D5000E0904002F090410200913A0210913B0273
:100D600020913C0230913D024091FA015091FB01EB
:100D70006091FC017091FD018091280282FB88271F
:100D800080F90E94FF00880E991E5301A80CB91C1F
:100D9000C0904602D0904702E0904802F09049028D
:100DA0000091420210914302209144023091450289
:100DB0004091FE015091FF0160910002709101028B
:100DC0008091280283FB882780F90E94FF00880E0B
:100DD000991E5301A80CB91CC0904E02D0904F022E
:100DE000E0905002F090510200914A0210914B02A3
:100DF00020914C0230914D02409102025091030229
:100E000060910402709105028091280282958170A0
:100E10000E94FF00880E991E5301A80CB91CC090B7
:100E20005602D0905702E0905802F090590200917B
:100E30005202109153022091540230915502409178
:100E40000602509107026091080270910902809198
:100E5000280285FB882780F90E94FF00880E991ED2
:100E60005301A80CB91CC0905E02D0905F02E090C4
:100E70006002F090610200915A0210915B02209191
:100E80005C0230915D0240910E0250910F02609120
:100E90001002709111028091290281700E94FF005E
:100EA000880E991E5301A80CB91CC0906602D09000
:100EB0006702E0906802F09069020091620210916E
:100EC0006302209164023091650240910A025091C0
:100ED0000B0260910C0270910D028091290286959F
:100EE00081700E94FF00880E991E5301A80CB91C46
:100EF000C0906E02D0906F02E0907002F09071028C
:100F000000916A0210916B0220916C0230916D0287
:100F100040911202509113026091140270911502D7
:100F20008091290282FB882780F90E94FF00880EA9
:100F3000991E5301A80CB91CC0907602D09077027C
:100F4000E0907802F09079020091720210917302A1
:100F5000209174023091750240911602509117024F
:100F600060911802709119028091290283FB8827F1
:100F700080F90E94FF00880D991D5301A80EB91E2B
:100F8000C0907E02D0907F02E0908002F0908102BB
:100F900000917A0210917B0220917C0230917D02B7
:100FA00040911A0250911B0260911C0270911D0227
:100FB00080912902829581700E94FF000E9486051F
:100FC0004C01409183028091820250E05A01FFEF70
:100FD000AF1ABF0A2DB73EB72A193B090FB6F894CE
:100FE0003EBF0FBE2DBF0DB71EB70F5F1F4FEDB732
:100FF000FEB78183B301C80101960E940C10F40171
:101000008381A501B80180640E94C1030FB6F894E2
:101010005EBE0FBE4DBEDF91CF911F910F91FF902D
:10102000EF90DF90CF90BF90AF909F908F907F9088
:101030006F905F904F90089590912502611125C0A7
:10104000891708F03FC0E82FE695E695E6952091D0
:10105000220230912302E20FF32FF11D282F277077
:1010600081E090E0A0E0B0E004C0880F991FAA1FC3
:10107000BB1F2A95D2F78095908189238083809128
:1010800024028823F9F00C94F8058917D8F4E82F86
:10109000E695E695E6952091220230912302E20F33
:1010A000F32FF11D282F277081E090E0A0E0B0E041
:1010B00004C0880F991FAA1FBB1F2A95D2F7208151
:1010C000822BDCCF08951F920F920FB60F9211243E
:1010D0002F933F938F939F93AF93BF9380919801EA
:1010E00090919901A0919A01B0919B013091970143
:1010F00023E0230F2D3758F50196A11DB11D209334
:1011000097018093980190939901A0939A01B093CD
:101110009B0180919C0190919D01A0919E01B091B5
:101120009F010196A11DB11D80939C0190939D018B
:10113000A0939E01B0939F01BF91AF919F918F911A
:101140003F912F910F900FBE0F901F90189526E89A
:10115000230F0296A11DB11DD2CF1F920F920FB681
:101160000F9211248F939F938091E1009091E10061
:10117000937F9093E10083FF0FC01092E90091E00C
:101180009093EB001092EC0092E39093ED0010929C
:10119000A10198E09093F00082FF22C093E0909329
:1011A000E9009091F200992319F09AE39093E800F6
:1011B00090918201992341F09091820191509093F6
:1011C0008201911101C05D9A9091A001992341F093
:1011D0009091A00191509093A001911101C0289A83
:1011E00084FF18C08091E2008E7E81608093E200CF
:1011F0008091E1008F7E8093E100809183018E7E5B
:101200008061809383019F918F910F900FBE0F900B
:101210001F90189580FFF7CF8091E2008E7E80614D
:101220008093E2008091E1008E7E8093E1008091C6
:1012300083018E7E8160E5CF1F920F920FB60F92D1
:101240001124CF92DF92EF92FF920F931F932F936F
:101250003F934F935F936F937F938F939F93AF933E
:10126000BF93EF93FF93CF93DF93CDB7DEB76C9728
:10127000DEBFCDBF1092E9008091E80083FF25C05A
:1012800068E0CE0145960E946D0482EF8093E800ED
:101290008D8987FF39C09091E80090FFFCCF982F8F
:1012A000907609F034C19E894F89588D2F89F88C2A
:1012B000911131C0803861F5809184018093F100F3
:1012C0001092F1008EEF8093E8006C960FB6F894C0
:1012D000DEBF0FBECDBFDF91CF91FF91EF91BF91E8
:1012E000AF919F918F917F916F915F914F913F91BE
:1012F0002F911F910F91FF90EF90DF90CF900F9063
:101300000FBE0F901F9018959EEF9093E800C7CFE7
:101310001092F100D5CF913059F48111D3CF4130E3
:10132000510581F6809184018D7F80938401CACF1D
:10133000933049F48111C6CF4130510519F680919F
:1013400084018260F2CF953041F48091E80080FF03
:10135000FCCF20682093E300B5CF963009F0A9C0F8
:101360000B8D1C8D22E01092E900109280011092EA
:101370007F01F2122EC010927E0110927D010E9418
:101380008E041F8299E09983FA8291E09E8390EA0D
:1013900098879AEF998720917F0130918001275F8C
:1013A0003F4F3C832B838D831092E9001092800184
:1013B00010927F0110937E0100937D0149E050E07F
:1013C000BE016F5F7F4F80E00E9485030E948E0404
:1013D00079CF10937E0100937D010E947A04DC0195
:1013E00012960D911C910115110509F451C1D801F6
:1013F000ED91FC910480F581E02DBE016B5E7F4F85
:10140000C8010995009709F03EC1F80100851185D2
:10141000EACFF3E0FF120EC08F89882309F440C0A1
:10142000823061F440E860E180E191E00E94520383
:10143000811148CF81E28093EB0047CF813029F4BE
:1014400040E86BE084E091E0F1CF833099F70E94AF
:101450007A04DC011296ED90FC908E010F5F1F4F15
:101460006801E114F10479F0D701ED91FC91068057
:10147000F781E02DB801C7010995080F111DF7018B
:10148000E084F184EECFD8011C92F6010190002097
:10149000E9F73197BF016C197D0940E0C601C6CF5D
:1014A0006EEE70E0FB01449150E080E80E948503FD
:1014B00009CF973009F4BECF983021F481E08093B2
:1014C000F10000CF993009F0FDCE837009F0B2CF62
:1014D000E1E0F1E081E031E096E32191222371F037
:1014E0008093E9003093EB00DF0111972C9120935A
:1014F000EC009093ED008F5F873079F78EE7809353
:10150000EA001092EA008F898093A101DBCE8B8DD7
:101510009C8D1092E9001092800110927F019093AF
:101520007E0180937D01898D811192C08E899D8974
:10153000913A49F4813209F07DCF47E050E06BE009
:1015400071E080E0B3CF913209F074CF833269F457
:101550008F89988DB0E0A0E08093070190930801F7
:10156000A0930901B0930A01ADCE803269F4809155
:10157000E80082FFFCCF67E08BE091E00E946D0401
:101580008BEF8093E8009ECE823209F09BCE8F894C
:1015900080931201EEEFFFE7859194918B3F9C4D74
:1015A00051F1E0E0F8E080910B0190910C01A091E5
:1015B0000D01B0910E01803B9440A105B105F1F4FD
:1015C0008091120180FD1AC0EE3F8AE0F80789F58C
:1015D00087E797E791838083809160008093810102
:1015E00088E19BE00FB6F894A895809360000FBE49
:1015F0009093600067CEEEEFFAE0D5CF80819181C5
:101600008737974709F05ECEA89580916000886182
:10161000809360008091810180936000EE3F2AE01A
:10162000F20789F08091FE0A9091FF0A91838083EE
:1016300049CE808191818737980751F29093FF0AB4
:101640008093FE0AC5CF1092FF0A1092FE0A3ACE8E
:101650000E947A04DC0112960D911C91011511056E
:1016600009F4E8CED801ED91FC910190F081E02DD4
:10167000BE016B5E7F4FC8010995811123CEF80131
:1016800000851185EBCF181619060CF41BCED2CEAF
:10169000F1E0FF12BECE62EF70E004CFEF92FF9256
:1016A0000F931F93CF93DF93CDB7DEB7C659D10900
:1016B0000FB6F894DEBF0FBECDBF1092A5011092F9
:1016C000A40188EE93E0A0E0B0E08093A60190939F
:1016D000A701A093A801B093A90189E491E0909398
:1016E000A3018093A2018FEF9FEF9093AF018093AE
:1016F000AE01109223021092220210922602109242
:101700002A0210922B0210922C0210922D028FEFBF
:1017100093E0A0E0B0E080932E0290932F02A0937C
:101720003002B093310210923202109233021092C2
:101730003402109235028093360290933702A093C0
:101740003802B093390210923A0210923B02109282
:101750003C0210923D0280933E0290933F02A09380
:101760004002B09341021092420210924302109242
:101770004402109245028093460290934702A09340
:101780004802B093490210924A0210924B02109202
:101790004C0210924D0280934E0290934F02A09300
:1017A0005002B093510210925202109253021092C2
:1017B0005402109255028093560290935702A093C0
:1017C0005802B093590210925A0210925B02109282
:1017D0005C0210925D0280935E0290935F02A09380
:1017E0006002B09361021092620210926302109242
:1017F0006402109265028093660290936702A09340
:101800006802B093690210926A0210926B02109201
:101810006C0210926D0280936E0290936F02A093FF
:101820007002B093710210927202109273021092C1
:101830007402109275028093760290937702A093BF
:101840007802B093790210927A0210927B02109281
:101850007C0210927D0280937E0290937F02A0937F
:101860008002B093810243E04093820290E1909322
:10187000250210922702109228021092290225E0D8
:10188000298381E08A8339E03B832C8351EA5D839D
:101890008E8355E85F83488729873A8729E12B871C
:1018A0008C8729E22D879E8725E12F87188A25E2DC
:1018B000298B8A8B25E72B8B8C8B85E98D8B9E8BD7
:1018C00085E58F8B188E85E6898F1A8E81E88B8F40
:1018D00082E08C8F80EC8D8F8DE190E00E94E70E8E
:1018E0007C018DE1FE013196D70101900D928A9520
:1018F000E1F787E090E00E94E70E8C01DC01119691
:101900001C921E921396FC92EE9212978DE190E03B
:1019100015969C938E93149716961C920E9486059A
:10192000FC01A385B485109709F0A2C01487038732
:1019300085859685D80114962D913C91820F931F31
:101940009687858790912502892F8695869586951D
:10195000977009F095C08093260210912602812F7E
:1019600090E0009711F481E090E00E94E70E9093E0
:1019700023028093220281E090912702911101C0FD
:1019800080E0810F809383021092F2011092F301A4
:101990001092F4011092F5011092F6011092F701E5
:1019A0001092F8011092F9011092FA011092FB01C5
:1019B0001092FC011092FD011092FE011092FF01A5
:1019C0001092000210920102109202021092030281
:1019D0001092040210920502109206021092070261
:1019E000109208021092090210920A0210920B0241
:1019F00010920C0210920D0210920E0210920F0221
:101A00001092100210921102109212021092130200
:101A100010921402109215021092160210921702E0
:101A2000109218021092190210921A0210921B02C0
:101A300010921C0210921D028FEF9FEF90931F02D5
:101A400080931E02909321028093200290E080E018
:101A50002091260228171906A9F0A4F0E09122028D
:101A6000F0912302E80FF91F10820196F1CFDC01FB
:101A70008D919C9111970097D1F70D931C9358CF9E
:101A80008F5F69CFCA56DF4F0FB6F894DEBF0FBE27
:101A9000CDBFDF91CF911F910F91FF90EF900895EF
:101AA000789484B5826084BD84B5816084BD85B539
:101AB000826085BD85B5816085BD80916E00816045
:101AC00080936E00109281008091810082608093EB
:101AD00081008091810081608093810080918000ED
:101AE000816080938000809191008260809391005A
:101AF000809191008160809391008091900081603D
:101B0000809390008091C10084608093C100809197
:101B1000C10082608093C1008091C1008160809388
:101B2000C1008091C30081608093C3008091C00098
:101B300082608093C0008091C20081608093C20067
:101B400080917A00846080937A0080917A0082602C
:101B500080937A0080917A00816080937A008091EE
:101B60007A00806880937A001092A101109284011B
:101B7000109283018091D70081608093D70080EA22
:101B80008093D80089B5806189BD89B5826089BD9F
:101B900009B400FEFDCF0E940C038091D8008F7C19
:101BA00080618093D8008091E000807F8093E00086
:101BB0008091E1008E7E8093E1008DE08093E200D1
:101BC000559A209A07E811E0C5E2D1E08881229673
:101BD00062E00E94B602F80111928F01F1E0C53473
:101BE000DF07A1F762E084E10E94B60262E085E1CE
:101BF0000E94B60261E081E00E94B60280E00E948D
:101C0000620281E0809324020E94F80590E0E92EB0
:101C100090E0F92E07E811E085E2C82E81E0D82E89
:101C2000D0E0C0E0F6018081F2E0CF0ED11C0E942E
:101C30008D0261E0892B09F060E0C730D1051CF00E
:101C4000CF30D105A9F58C2F0E941C0821960F5F7B
:101C50001F4FC031D10531F784E10E948D02C1E0F0
:101C6000892B09F0C0E085E10E948D02D1E0892B2B
:101C700009F0D0E080918601C81749F0C093860131
:101C80006C2F85E10E941C088C2F0E9462028091BB
:101C90008501D81731F0D09385016D2F84E10E9422
:101CA0001C08E114F10409F4B5CF0E940000B2CF82
:101CB000F8018081681751F26083C5CF052E97FB2C
:101CC0001EF400940E94750E57FD07D00E94880EE6
:101CD00007FC03D04EF40C94750E5095409530954A
:101CE00021953F4F4F4F5F4F089590958095709588
:101CF00061957F4F8F4F9F4F08950E94AA0EA59F19
:101D0000900DB49F900DA49F800D911D11240895F6
:101D1000A1E21A2EAA1BBB1BFD010DC0AA1FBB1FEF
:101D2000EE1FFF1FA217B307E407F50720F0A21B61
:101D3000B30BE40BF50B661F771F881F991F1A94CE
:101D400069F760957095809590959B01AC01BD01F8
:101D5000CF010895A29FB001B39FC001A39F700D52
:101D6000811D1124911DB29F700D811D1124911DA3
:101D7000089597FB072E16F4009407D077FD09D03D
:101D80000E94D30E07FC05D03EF4909581959F4F9D
:101D90000895709561957F4F0895EE0FFF1F059090
:101DA000F491E02D0994AA1BBB1B51E107C0AA1FA7
:101DB000BB1FA617B70710F0A61BB70B881F991FEC
:101DC0005A95A9F780959095BC01CD0108950F9380
:101DD0001F93CF93DF938230910510F482E090E05F
:101DE000E0918602F091870230E020E0B0E0A0E0D0
:101DF000309799F42115310509F44AC0281B390B95
:101E000024303105D8F58A819B816115710589F1EE
:101E1000FB0193838283FE0111C0408151810281C5
:101E2000138148175907E0F04817590799F410979C
:101E300061F012960C93129713961C933296CF0171
:101E4000DF91CF911F910F91089500938602109317
:101E50008702F4CF2115310551F04217530738F0AE
:101E6000A901DB019A01BD01DF01F801C1CFEF013A
:101E7000F9CF9093870280938602CDCFFE01E20FC7
:101E8000F31F819391932250310939832883D7CF4F
:101E90002091840230918502232B41F42091150179
:101EA0003091160130938502209384022091130112
:101EB000309114012115310541F42DB73EB7409101
:101EC000170150911801241B350BE0918402F09109
:101ED0008502E217F307A0F42E1B3F0B28173907E2
:101EE00078F0AC014E5F5F4F2417350748F04E0F76
:101EF0005F1F5093850240938402819391939FCFFB
:101F0000F0E0E0E09CCFCF93DF930097E9F0FC0195
:101F1000329713821282A0918602B0918702ED015E
:101F200030E020E01097A1F420813181820F931FCF
:101F300020918402309185022817390709F061C089
:101F4000F0938502E0938402DF91CF910895EA0136
:101F5000CE17DF07E8F54A815B819E0141155105E7
:101F6000B1F7E901FB83EA8349915991C40FD51F69
:101F7000EC17FD0761F4808191810296840F951F13
:101F8000E90199838883828193819B838A83F0E02E
:101F9000E0E012968D919C9113970097B9F52D91E1
:101FA0003C911197CD010296820F931F20918402DC
:101FB000309185022817390739F6309751F510927C
:101FC000870210928602B0938502A0938402BCCF50
:101FD000D383C28340815181840F951FC817D907CD
:101FE00061F44E5F5F4F88819981480F591F51837B
:101FF00040838A819B81938382832115310509F077
:10200000B0CFF0938702E09386029ECFFD01DC0102
:10201000C0CF13821282D7CFFB01DC0102C0019036
:0E2020000D9241505040D8F70895F894FFCF2C
:10202E0000C18081000000FFFFFFFF00E100000003
:10203E0000000000008802800000000000BF043B8A
:10204E0005FD04E20402000300040005000600077B
:10205E0000080009000A0010000E000F0012001305
:10206E0000140015000000000099015704BC03AFD6
:08207E0001FC01BA01D80100C8
:00000001FF
